{
  "_format": "hh-sol-artifact-1",
  "contractName": "NFT721",
  "sourceName": "contracts/NFT721.sol",
  "abi": [
    {
      "inputs": [],
      "stateMutability": "nonpayable",
      "type": "constructor"
    },
    {
      "anonymous": false,
      "inputs": [
        {
          "indexed": true,
          "internalType": "address",
          "name": "owner",
          "type": "address"
        },
        {
          "indexed": true,
          "internalType": "address",
          "name": "approved",
          "type": "address"
        },
        {
          "indexed": true,
          "internalType": "uint256",
          "name": "tokenId",
          "type": "uint256"
        }
      ],
      "name": "Approval",
      "type": "event"
    },
    {
      "anonymous": false,
      "inputs": [
        {
          "indexed": true,
          "internalType": "address",
          "name": "owner",
          "type": "address"
        },
        {
          "indexed": true,
          "internalType": "address",
          "name": "operator",
          "type": "address"
        },
        {
          "indexed": false,
          "internalType": "bool",
          "name": "approved",
          "type": "bool"
        }
      ],
      "name": "ApprovalForAll",
      "type": "event"
    },
    {
      "anonymous": false,
      "inputs": [
        {
          "indexed": true,
          "internalType": "address",
          "name": "previousOwner",
          "type": "address"
        },
        {
          "indexed": true,
          "internalType": "address",
          "name": "newOwner",
          "type": "address"
        }
      ],
      "name": "OwnershipTransferred",
      "type": "event"
    },
    {
      "anonymous": false,
      "inputs": [
        {
          "indexed": true,
          "internalType": "address",
          "name": "from",
          "type": "address"
        },
        {
          "indexed": true,
          "internalType": "address",
          "name": "to",
          "type": "address"
        },
        {
          "indexed": true,
          "internalType": "uint256",
          "name": "tokenId",
          "type": "uint256"
        }
      ],
      "name": "Transfer",
      "type": "event"
    },
    {
      "inputs": [
        {
          "internalType": "address",
          "name": "",
          "type": "address"
        },
        {
          "internalType": "uint256",
          "name": "",
          "type": "uint256"
        }
      ],
      "name": "addressToTokens",
      "outputs": [
        {
          "internalType": "uint256",
          "name": "",
          "type": "uint256"
        }
      ],
      "stateMutability": "view",
      "type": "function"
    },
    {
      "inputs": [
        {
          "internalType": "address",
          "name": "to",
          "type": "address"
        },
        {
          "internalType": "uint256",
          "name": "tokenId",
          "type": "uint256"
        }
      ],
      "name": "approve",
      "outputs": [],
      "stateMutability": "nonpayable",
      "type": "function"
    },
    {
      "inputs": [
        {
          "internalType": "address",
          "name": "owner",
          "type": "address"
        }
      ],
      "name": "balanceOf",
      "outputs": [
        {
          "internalType": "uint256",
          "name": "",
          "type": "uint256"
        }
      ],
      "stateMutability": "view",
      "type": "function"
    },
    {
      "inputs": [
        {
          "internalType": "string",
          "name": "_uri",
          "type": "string"
        }
      ],
      "name": "createNFT",
      "outputs": [],
      "stateMutability": "nonpayable",
      "type": "function"
    },
    {
      "inputs": [
        {
          "internalType": "uint256",
          "name": "tokenId",
          "type": "uint256"
        }
      ],
      "name": "getApproved",
      "outputs": [
        {
          "internalType": "address",
          "name": "",
          "type": "address"
        }
      ],
      "stateMutability": "view",
      "type": "function"
    },
    {
      "inputs": [
        {
          "internalType": "address",
          "name": "owner",
          "type": "address"
        },
        {
          "internalType": "address",
          "name": "operator",
          "type": "address"
        }
      ],
      "name": "isApprovedForAll",
      "outputs": [
        {
          "internalType": "bool",
          "name": "",
          "type": "bool"
        }
      ],
      "stateMutability": "view",
      "type": "function"
    },
    {
      "inputs": [],
      "name": "name",
      "outputs": [
        {
          "internalType": "string",
          "name": "",
          "type": "string"
        }
      ],
      "stateMutability": "view",
      "type": "function"
    },
    {
      "inputs": [],
      "name": "owner",
      "outputs": [
        {
          "internalType": "address",
          "name": "",
          "type": "address"
        }
      ],
      "stateMutability": "view",
      "type": "function"
    },
    {
      "inputs": [
        {
          "internalType": "uint256",
          "name": "tokenId",
          "type": "uint256"
        }
      ],
      "name": "ownerOf",
      "outputs": [
        {
          "internalType": "address",
          "name": "",
          "type": "address"
        }
      ],
      "stateMutability": "view",
      "type": "function"
    },
    {
      "inputs": [],
      "name": "renounceOwnership",
      "outputs": [],
      "stateMutability": "nonpayable",
      "type": "function"
    },
    {
      "inputs": [
        {
          "internalType": "address",
          "name": "from",
          "type": "address"
        },
        {
          "internalType": "address",
          "name": "to",
          "type": "address"
        },
        {
          "internalType": "uint256",
          "name": "tokenId",
          "type": "uint256"
        }
      ],
      "name": "safeTransferFrom",
      "outputs": [],
      "stateMutability": "nonpayable",
      "type": "function"
    },
    {
      "inputs": [
        {
          "internalType": "address",
          "name": "from",
          "type": "address"
        },
        {
          "internalType": "address",
          "name": "to",
          "type": "address"
        },
        {
          "internalType": "uint256",
          "name": "tokenId",
          "type": "uint256"
        },
        {
          "internalType": "bytes",
          "name": "_data",
          "type": "bytes"
        }
      ],
      "name": "safeTransferFrom",
      "outputs": [],
      "stateMutability": "nonpayable",
      "type": "function"
    },
    {
      "inputs": [
        {
          "internalType": "address",
          "name": "operator",
          "type": "address"
        },
        {
          "internalType": "bool",
          "name": "approved",
          "type": "bool"
        }
      ],
      "name": "setApprovalForAll",
      "outputs": [],
      "stateMutability": "nonpayable",
      "type": "function"
    },
    {
      "inputs": [
        {
          "internalType": "bytes4",
          "name": "interfaceId",
          "type": "bytes4"
        }
      ],
      "name": "supportsInterface",
      "outputs": [
        {
          "internalType": "bool",
          "name": "",
          "type": "bool"
        }
      ],
      "stateMutability": "view",
      "type": "function"
    },
    {
      "inputs": [],
      "name": "symbol",
      "outputs": [
        {
          "internalType": "string",
          "name": "",
          "type": "string"
        }
      ],
      "stateMutability": "view",
      "type": "function"
    },
    {
      "inputs": [
        {
          "internalType": "uint256",
          "name": "tokenId",
          "type": "uint256"
        }
      ],
      "name": "tokenURI",
      "outputs": [
        {
          "internalType": "string",
          "name": "",
          "type": "string"
        }
      ],
      "stateMutability": "view",
      "type": "function"
    },
    {
      "inputs": [
        {
          "internalType": "address",
          "name": "from",
          "type": "address"
        },
        {
          "internalType": "address",
          "name": "to",
          "type": "address"
        },
        {
          "internalType": "uint256",
          "name": "tokenId",
          "type": "uint256"
        }
      ],
      "name": "transferFrom",
      "outputs": [],
      "stateMutability": "nonpayable",
      "type": "function"
    },
    {
      "inputs": [
        {
          "internalType": "address",
          "name": "newOwner",
          "type": "address"
        }
      ],
      "name": "transferOwnership",
      "outputs": [],
      "stateMutability": "nonpayable",
      "type": "function"
    }
  ],
  "bytecode": "0x60806040523480156200001157600080fd5b506040805180820182526006815265135e4813919560d21b60208083019182528351808501909452600384526213919560ea1b9084015281519192916200005b91600091620000ea565b50805162000071906001906020840190620000ea565b5050506200008e620000886200009460201b60201c565b62000098565b620001cd565b3390565b600780546001600160a01b038381166001600160a01b0319831681179093556040519116919082907f8be0079c531659141344cd1fd0a4f28419497f9722a3daafe3b4186f6b6457e090600090a35050565b828054620000f89062000190565b90600052602060002090601f0160209004810192826200011c576000855562000167565b82601f106200013757805160ff191683800117855562000167565b8280016001018555821562000167579182015b82811115620001675782518255916020019190600101906200014a565b506200017592915062000179565b5090565b5b808211156200017557600081556001016200017a565b600181811c90821680620001a557607f821691505b60208210811415620001c757634e487b7160e01b600052602260045260246000fd5b50919050565b6119ab80620001dd6000396000f3fe608060405234801561001057600080fd5b50600436106101165760003560e01c80638714a76a116100a2578063b88d4fde11610071578063b88d4fde14610239578063c87b56dd1461024c578063da2ed03e1461025f578063e985e9c514610272578063f2fde38b146102ae57600080fd5b80638714a76a146101fa5780638da5cb5b1461020d57806395d89b411461021e578063a22cb4651461022657600080fd5b806323b872dd116100e957806323b872dd1461019857806342842e0e146101ab5780636352211e146101be57806370a08231146101d1578063715018a6146101f257600080fd5b806301ffc9a71461011b57806306fdde0314610143578063081812fc14610158578063095ea7b314610183575b600080fd5b61012e61012936600461161b565b6102c1565b60405190151581526020015b60405180910390f35b61014b610313565b60405161013a9190611778565b61016b6101663660046116c7565b6103a5565b6040516001600160a01b03909116815260200161013a565b6101966101913660046115f1565b610432565b005b6101966101a636600461149d565b610548565b6101966101b936600461149d565b610579565b61016b6101cc3660046116c7565b610594565b6101e46101df36600461144f565b61060b565b60405190815260200161013a565b610196610692565b6101e46102083660046115f1565b6106f8565b6007546001600160a01b031661016b565b61014b610729565b6101966102343660046115b5565b610738565b6101966102473660046114d9565b610747565b61014b61025a3660046116c7565b61077f565b61019661026d366004611655565b6108f6565b61012e61028036600461146a565b6001600160a01b03918216600090815260056020908152604080832093909416825291909152205460ff1690565b6101966102bc36600461144f565b61097d565b60006001600160e01b031982166380ac58cd60e01b14806102f257506001600160e01b03198216635b5e139f60e01b145b8061030d57506301ffc9a760e01b6001600160e01b03198316145b92915050565b6060600080546103229061189d565b80601f016020809104026020016040519081016040528092919081815260200182805461034e9061189d565b801561039b5780601f106103705761010080835404028352916020019161039b565b820191906000526020600020905b81548152906001019060200180831161037e57829003601f168201915b5050505050905090565b60006103b082610a48565b6104165760405162461bcd60e51b815260206004820152602c60248201527f4552433732313a20617070726f76656420717565727920666f72206e6f6e657860448201526b34b9ba32b73a103a37b5b2b760a11b60648201526084015b60405180910390fd5b506000908152600460205260409020546001600160a01b031690565b600061043d82610594565b9050806001600160a01b0316836001600160a01b031614156104ab5760405162461bcd60e51b815260206004820152602160248201527f4552433732313a20617070726f76616c20746f2063757272656e74206f776e656044820152603960f91b606482015260840161040d565b336001600160a01b03821614806104c757506104c78133610280565b6105395760405162461bcd60e51b815260206004820152603860248201527f4552433732313a20617070726f76652063616c6c6572206973206e6f74206f7760448201527f6e6572206e6f7220617070726f76656420666f7220616c6c0000000000000000606482015260840161040d565b6105438383610a65565b505050565b6105523382610ad3565b61056e5760405162461bcd60e51b815260040161040d906117dd565b610543838383610bbc565b61054383838360405180602001604052806000815250610747565b6000818152600260205260408120546001600160a01b03168061030d5760405162461bcd60e51b815260206004820152602960248201527f4552433732313a206f776e657220717565727920666f72206e6f6e657869737460448201526832b73a103a37b5b2b760b91b606482015260840161040d565b60006001600160a01b0382166106765760405162461bcd60e51b815260206004820152602a60248201527f4552433732313a2062616c616e636520717565727920666f7220746865207a65604482015269726f206164647265737360b01b606482015260840161040d565b506001600160a01b031660009081526003602052604090205490565b6007546001600160a01b031633146106ec5760405162461bcd60e51b815260206004820181905260248201527f4f776e61626c653a2063616c6c6572206973206e6f7420746865206f776e6572604482015260640161040d565b6106f66000610d58565b565b6009602052816000526040600020818154811061071457600080fd5b90600052602060002001600091509150505481565b6060600180546103229061189d565b610743338383610daa565b5050565b6107513383610ad3565b61076d5760405162461bcd60e51b815260040161040d906117dd565b61077984848484610e79565b50505050565b606061078a82610a48565b6107f05760405162461bcd60e51b815260206004820152603160248201527f45524337323155524953746f726167653a2055524920717565727920666f72206044820152703737b732bc34b9ba32b73a103a37b5b2b760791b606482015260840161040d565b600082815260066020526040812080546108099061189d565b80601f01602080910402602001604051908101604052809291908181526020018280546108359061189d565b80156108825780601f1061085757610100808354040283529160200191610882565b820191906000526020600020905b81548152906001019060200180831161086557829003601f168201915b5050505050905060006108a060408051602081019091526000815290565b90508051600014156108b3575092915050565b8151156108e55780826040516020016108cd92919061170c565b60405160208183030381529060405292505050919050565b6108ee84610eac565b949350505050565b600061090160085490565b905061090d3382610f84565b61094d8184848080601f016020809104026020016040519081016040528093929190818152602001838380828437600092019190915250610f9e92505050565b33600090815260096020908152604082208054600181018255908352912001819055610543600880546001019055565b6007546001600160a01b031633146109d75760405162461bcd60e51b815260206004820181905260248201527f4f776e61626c653a2063616c6c6572206973206e6f7420746865206f776e6572604482015260640161040d565b6001600160a01b038116610a3c5760405162461bcd60e51b815260206004820152602660248201527f4f776e61626c653a206e6577206f776e657220697320746865207a65726f206160448201526564647265737360d01b606482015260840161040d565b610a4581610d58565b50565b6000908152600260205260409020546001600160a01b0316151590565b600081815260046020526040902080546001600160a01b0319166001600160a01b0384169081179091558190610a9a82610594565b6001600160a01b03167f8c5be1e5ebec7d5bd14f71427d1e84f3dd0314c0f7b2291e5b200ac8c7c3b92560405160405180910390a45050565b6000610ade82610a48565b610b3f5760405162461bcd60e51b815260206004820152602c60248201527f4552433732313a206f70657261746f7220717565727920666f72206e6f6e657860448201526b34b9ba32b73a103a37b5b2b760a11b606482015260840161040d565b6000610b4a83610594565b9050806001600160a01b0316846001600160a01b03161480610b9157506001600160a01b0380821660009081526005602090815260408083209388168352929052205460ff165b806108ee5750836001600160a01b0316610baa846103a5565b6001600160a01b031614949350505050565b826001600160a01b0316610bcf82610594565b6001600160a01b031614610c335760405162461bcd60e51b815260206004820152602560248201527f4552433732313a207472616e736665722066726f6d20696e636f72726563742060448201526437bbb732b960d91b606482015260840161040d565b6001600160a01b038216610c955760405162461bcd60e51b8152602060048201526024808201527f4552433732313a207472616e7366657220746f20746865207a65726f206164646044820152637265737360e01b606482015260840161040d565b610ca0600082610a65565b6001600160a01b0383166000908152600360205260408120805460019290610cc990849061185a565b90915550506001600160a01b0382166000908152600360205260408120805460019290610cf790849061182e565b909155505060008181526002602052604080822080546001600160a01b0319166001600160a01b0386811691821790925591518493918716917fddf252ad1be2c89b69c2b068fc378daa952ba7f163c4a11628f55a4df523b3ef91a4505050565b600780546001600160a01b038381166001600160a01b0319831681179093556040519116919082907f8be0079c531659141344cd1fd0a4f28419497f9722a3daafe3b4186f6b6457e090600090a35050565b816001600160a01b0316836001600160a01b03161415610e0c5760405162461bcd60e51b815260206004820152601960248201527f4552433732313a20617070726f766520746f2063616c6c657200000000000000604482015260640161040d565b6001600160a01b03838116600081815260056020908152604080832094871680845294825291829020805460ff191686151590811790915591519182527f17307eab39ab6107e8899845ad3d59bd9653f200f220920489ca2b5937696c31910160405180910390a3505050565b610e84848484610bbc565b610e9084848484611029565b6107795760405162461bcd60e51b815260040161040d9061178b565b6060610eb782610a48565b610f1b5760405162461bcd60e51b815260206004820152602f60248201527f4552433732314d657461646174613a2055524920717565727920666f72206e6f60448201526e3732bc34b9ba32b73a103a37b5b2b760891b606482015260840161040d565b6000610f3260408051602081019091526000815290565b90506000815111610f525760405180602001604052806000815250610f7d565b80610f5c84611136565b604051602001610f6d92919061170c565b6040516020818303038152906040525b9392505050565b610743828260405180602001604052806000815250611234565b610fa782610a48565b61100a5760405162461bcd60e51b815260206004820152602e60248201527f45524337323155524953746f726167653a2055524920736574206f66206e6f6e60448201526d32bc34b9ba32b73a103a37b5b2b760911b606482015260840161040d565b600082815260066020908152604090912082516105439284019061139a565b60006001600160a01b0384163b1561112b57604051630a85bd0160e11b81526001600160a01b0385169063150b7a029061106d90339089908890889060040161173b565b602060405180830381600087803b15801561108757600080fd5b505af19250505080156110b7575060408051601f3d908101601f191682019092526110b491810190611638565b60015b611111573d8080156110e5576040519150601f19603f3d011682016040523d82523d6000602084013e6110ea565b606091505b5080516111095760405162461bcd60e51b815260040161040d9061178b565b805181602001fd5b6001600160e01b031916630a85bd0160e11b1490506108ee565b506001949350505050565b60608161115a5750506040805180820190915260018152600360fc1b602082015290565b8160005b8115611184578061116e816118d8565b915061117d9050600a83611846565b915061115e565b60008167ffffffffffffffff81111561119f5761119f611949565b6040519080825280601f01601f1916602001820160405280156111c9576020820181803683370190505b5090505b84156108ee576111de60018361185a565b91506111eb600a866118f3565b6111f690603061182e565b60f81b81838151811061120b5761120b611933565b60200101906001600160f81b031916908160001a90535061122d600a86611846565b94506111cd565b61123e8383611267565b61124b6000848484611029565b6105435760405162461bcd60e51b815260040161040d9061178b565b6001600160a01b0382166112bd5760405162461bcd60e51b815260206004820181905260248201527f4552433732313a206d696e7420746f20746865207a65726f2061646472657373604482015260640161040d565b6112c681610a48565b156113135760405162461bcd60e51b815260206004820152601c60248201527f4552433732313a20746f6b656e20616c7265616479206d696e74656400000000604482015260640161040d565b6001600160a01b038216600090815260036020526040812080546001929061133c90849061182e565b909155505060008181526002602052604080822080546001600160a01b0319166001600160a01b03861690811790915590518392907fddf252ad1be2c89b69c2b068fc378daa952ba7f163c4a11628f55a4df523b3ef908290a45050565b8280546113a69061189d565b90600052602060002090601f0160209004810192826113c8576000855561140e565b82601f106113e157805160ff191683800117855561140e565b8280016001018555821561140e579182015b8281111561140e5782518255916020019190600101906113f3565b5061141a92915061141e565b5090565b5b8082111561141a576000815560010161141f565b80356001600160a01b038116811461144a57600080fd5b919050565b60006020828403121561146157600080fd5b610f7d82611433565b6000806040838503121561147d57600080fd5b61148683611433565b915061149460208401611433565b90509250929050565b6000806000606084860312156114b257600080fd5b6114bb84611433565b92506114c960208501611433565b9150604084013590509250925092565b600080600080608085870312156114ef57600080fd5b6114f885611433565b935061150660208601611433565b925060408501359150606085013567ffffffffffffffff8082111561152a57600080fd5b818701915087601f83011261153e57600080fd5b81358181111561155057611550611949565b604051601f8201601f19908116603f0116810190838211818310171561157857611578611949565b816040528281528a602084870101111561159157600080fd5b82602086016020830137600060208483010152809550505050505092959194509250565b600080604083850312156115c857600080fd5b6115d183611433565b9150602083013580151581146115e657600080fd5b809150509250929050565b6000806040838503121561160457600080fd5b61160d83611433565b946020939093013593505050565b60006020828403121561162d57600080fd5b8135610f7d8161195f565b60006020828403121561164a57600080fd5b8151610f7d8161195f565b6000806020838503121561166857600080fd5b823567ffffffffffffffff8082111561168057600080fd5b818501915085601f83011261169457600080fd5b8135818111156116a357600080fd5b8660208285010111156116b557600080fd5b60209290920196919550909350505050565b6000602082840312156116d957600080fd5b5035919050565b600081518084526116f8816020860160208601611871565b601f01601f19169290920160200192915050565b6000835161171e818460208801611871565b835190830190611732818360208801611871565b01949350505050565b6001600160a01b038581168252841660208201526040810183905260806060820181905260009061176e908301846116e0565b9695505050505050565b602081526000610f7d60208301846116e0565b60208082526032908201527f4552433732313a207472616e7366657220746f206e6f6e20455243373231526560408201527131b2b4bb32b91034b6b83632b6b2b73a32b960711b606082015260800190565b60208082526031908201527f4552433732313a207472616e736665722063616c6c6572206973206e6f74206f6040820152701ddb995c881b9bdc88185c1c1c9bdd9959607a1b606082015260800190565b6000821982111561184157611841611907565b500190565b6000826118555761185561191d565b500490565b60008282101561186c5761186c611907565b500390565b60005b8381101561188c578181015183820152602001611874565b838111156107795750506000910152565b600181811c908216806118b157607f821691505b602082108114156118d257634e487b7160e01b600052602260045260246000fd5b50919050565b60006000198214156118ec576118ec611907565b5060010190565b6000826119025761190261191d565b500690565b634e487b7160e01b600052601160045260246000fd5b634e487b7160e01b600052601260045260246000fd5b634e487b7160e01b600052603260045260246000fd5b634e487b7160e01b600052604160045260246000fd5b6001600160e01b031981168114610a4557600080fdfea2646970667358221220c20d2d17ba010d476722c9ee388c0d37708500443d40d3429ee21ce9707cb0b764736f6c63430008060033",
  "linkReferences": {},
  "deployedLinkReferences": {}
}