{
  "_format": "hh-sol-artifact-1",
  "contractName": "Marketplace",
  "sourceName": "contracts/Marketplace.sol",
  "abi": [
    {
      "inputs": [
        {
          "internalType": "address",
          "name": "_allowedNFT",
          "type": "address"
        }
      ],
      "stateMutability": "nonpayable",
      "type": "constructor"
    },
    {
      "anonymous": false,
      "inputs": [
        {
          "indexed": false,
          "internalType": "address",
          "name": "_nftAddress",
          "type": "address"
        },
        {
          "indexed": false,
          "internalType": "uint256",
          "name": "_tokenId",
          "type": "uint256"
        },
        {
          "indexed": false,
          "internalType": "uint256",
          "name": "_tokenPrice",
          "type": "uint256"
        },
        {
          "indexed": false,
          "internalType": "address",
          "name": "_seller",
          "type": "address"
        },
        {
          "indexed": false,
          "internalType": "address",
          "name": "_buyer",
          "type": "address"
        }
      ],
      "name": "BuyItem",
      "type": "event"
    },
    {
      "anonymous": false,
      "inputs": [
        {
          "indexed": false,
          "internalType": "address",
          "name": "_seller",
          "type": "address"
        },
        {
          "indexed": false,
          "internalType": "uint256",
          "name": "_itemId",
          "type": "uint256"
        }
      ],
      "name": "CancelSell",
      "type": "event"
    },
    {
      "anonymous": false,
      "inputs": [
        {
          "indexed": false,
          "internalType": "address",
          "name": "_nftAddress",
          "type": "address"
        },
        {
          "indexed": false,
          "internalType": "uint256",
          "name": "_tokenId",
          "type": "uint256"
        },
        {
          "indexed": false,
          "internalType": "uint256",
          "name": "_tokenPrice",
          "type": "uint256"
        },
        {
          "indexed": false,
          "internalType": "address",
          "name": "_seller",
          "type": "address"
        }
      ],
      "name": "CreateItemSale",
      "type": "event"
    },
    {
      "anonymous": false,
      "inputs": [
        {
          "indexed": true,
          "internalType": "address",
          "name": "previousOwner",
          "type": "address"
        },
        {
          "indexed": true,
          "internalType": "address",
          "name": "newOwner",
          "type": "address"
        }
      ],
      "name": "OwnershipTransferred",
      "type": "event"
    },
    {
      "inputs": [
        {
          "internalType": "uint256",
          "name": "_itemId",
          "type": "uint256"
        }
      ],
      "name": "buyItem",
      "outputs": [],
      "stateMutability": "payable",
      "type": "function"
    },
    {
      "inputs": [
        {
          "internalType": "uint256",
          "name": "_itemId",
          "type": "uint256"
        }
      ],
      "name": "cancelSell",
      "outputs": [],
      "stateMutability": "nonpayable",
      "type": "function"
    },
    {
      "inputs": [
        {
          "internalType": "address",
          "name": "_nftAddress",
          "type": "address"
        },
        {
          "internalType": "uint256",
          "name": "_tokenId",
          "type": "uint256"
        },
        {
          "internalType": "uint256",
          "name": "_price",
          "type": "uint256"
        }
      ],
      "name": "createMarketItem",
      "outputs": [],
      "stateMutability": "nonpayable",
      "type": "function"
    },
    {
      "inputs": [
        {
          "internalType": "uint256",
          "name": "",
          "type": "uint256"
        }
      ],
      "name": "marketItem",
      "outputs": [
        {
          "internalType": "uint256",
          "name": "itemId",
          "type": "uint256"
        },
        {
          "internalType": "address",
          "name": "nftAddress",
          "type": "address"
        },
        {
          "internalType": "uint256",
          "name": "tokenId",
          "type": "uint256"
        },
        {
          "internalType": "address",
          "name": "seller",
          "type": "address"
        },
        {
          "internalType": "address",
          "name": "buyer",
          "type": "address"
        },
        {
          "internalType": "uint256",
          "name": "price",
          "type": "uint256"
        },
        {
          "internalType": "bool",
          "name": "sold",
          "type": "bool"
        },
        {
          "internalType": "bool",
          "name": "isCanceled",
          "type": "bool"
        },
        {
          "internalType": "uint256",
          "name": "timeCreated",
          "type": "uint256"
        },
        {
          "internalType": "uint256",
          "name": "timeSold",
          "type": "uint256"
        }
      ],
      "stateMutability": "view",
      "type": "function"
    },
    {
      "inputs": [],
      "name": "owner",
      "outputs": [
        {
          "internalType": "address",
          "name": "",
          "type": "address"
        }
      ],
      "stateMutability": "view",
      "type": "function"
    },
    {
      "inputs": [],
      "name": "renounceOwnership",
      "outputs": [],
      "stateMutability": "nonpayable",
      "type": "function"
    },
    {
      "inputs": [
        {
          "internalType": "address",
          "name": "_nftAddress",
          "type": "address"
        },
        {
          "internalType": "bool",
          "name": "_license",
          "type": "bool"
        }
      ],
      "name": "setAllowedNFT",
      "outputs": [],
      "stateMutability": "nonpayable",
      "type": "function"
    },
    {
      "inputs": [
        {
          "internalType": "address",
          "name": "newOwner",
          "type": "address"
        }
      ],
      "name": "transferOwnership",
      "outputs": [],
      "stateMutability": "nonpayable",
      "type": "function"
    }
  ],
  "bytecode": "0x608060405234801561001057600080fd5b50604051610cd3380380610cd383398101604081905261002f9161009e565b6100383361004e565b6001600160a01b031660005260026020526100ce565b600080546001600160a01b038381166001600160a01b0319831681178455604051919092169283917f8be0079c531659141344cd1fd0a4f28419497f9722a3daafe3b4186f6b6457e09190a35050565b6000602082840312156100b057600080fd5b81516001600160a01b03811681146100c757600080fd5b9392505050565b610bf6806100dd6000396000f3fe60806040526004361061007b5760003560e01c80638da5cb5b1161004e5780638da5cb5b146101b7578063aea08255146101df578063e7fb74c7146101ff578063f2fde38b1461021257600080fd5b806307c9cd451461008057806322d4efd8146100a257806358eb2df514610182578063715018a6146101a2575b600080fd5b34801561008c57600080fd5b506100a061009b366004610b72565b610232565b005b3480156100ae57600080fd5b506101236100bd366004610b72565b600360208190526000918252604090912080546001820154600283015493830154600484015460058501546006860154600787015460089097015495976001600160a01b039586169790969486169590931693919260ff8083169361010090930416918a565b604080519a8b526001600160a01b03998a1660208c01528a0197909752948716606089015295909216608087015260a0860152151560c085015291151560e0840152610100830191909152610120820152610140015b60405180910390f35b34801561018e57600080fd5b506100a061019d366004610b3f565b6103ec565b3480156101ae57600080fd5b506100a06106b3565b3480156101c357600080fd5b506000546040516001600160a01b039091168152602001610179565b3480156101eb57600080fd5b506100a06101fa366004610b03565b6106e9565b6100a061020d366004610b72565b61073e565b34801561021e57600080fd5b506100a061022d366004610ae1565b6109da565b6000818152600360205260409020600681015460ff161561028f5760405162461bcd60e51b8152602060048201526012602482015271125d195b481a185cc81899595b881cdbdb1960721b60448201526064015b60405180910390fd5b6006810154610100900460ff16156102e05760405162461bcd60e51b8152602060048201526014602482015273125d195b481a185cc81899595b8818d85b98d95b60621b6044820152606401610286565b60038101546001600160a01b031633146103275760405162461bcd60e51b81526020600482015260086024820152672337b93134b232b760c11b6044820152606401610286565b60068101805461ff001916610100179055600181015460028201546040516323b872dd60e01b815230600482015233602482015260448101919091526001600160a01b03909116906323b872dd90606401600060405180830381600087803b15801561039257600080fd5b505af11580156103a6573d6000803e3d6000fd5b505082546040805133815260208101929092527f1d9a1b6495eda6cce8aef549d9c7b628d901a68f6eb7d7629458b006ab79cb0693500190505b60405180910390a15050565b6001600160a01b03831660009081526002602052604090205460ff166104475760405162461bcd60e51b815260206004820152601060248201526f13db9b1e48185b1b1bddd9590813919560821b6044820152606401610286565b600061045260015490565b9050604051806101400160405280828152602001856001600160a01b03168152602001848152602001336001600160a01b0316815260200160006001600160a01b031681526020018381526020016000151581526020016000151581526020014281526020016000815250600360008381526020019081526020016000206000820151816000015560208201518160010160006101000a8154816001600160a01b0302191690836001600160a01b031602179055506040820151816002015560608201518160030160006101000a8154816001600160a01b0302191690836001600160a01b0316021790555060808201518160040160006101000a8154816001600160a01b0302191690836001600160a01b0316021790555060a0820151816005015560c08201518160060160006101000a81548160ff02191690831515021790555060e08201518160060160016101000a81548160ff02191690831515021790555061010082015181600701556101208201518160080155905050836001600160a01b03166323b872dd3330866040518463ffffffff1660e01b815260040161061d939291906001600160a01b039384168152919092166020820152604081019190915260600190565b600060405180830381600087803b15801561063757600080fd5b505af115801561064b573d6000803e3d6000fd5b5050505061065d600180546001019055565b604080516001600160a01b0386168152602081018590529081018390523360608201527f77909a86d80fee4d1f9885d102741b4b8ce2d434615a6296bc8c0a7f30743a3a9060800160405180910390a150505050565b6000546001600160a01b031633146106dd5760405162461bcd60e51b815260040161028690610b8b565b6106e76000610a75565b565b6000546001600160a01b031633146107135760405162461bcd60e51b815260040161028690610b8b565b6001600160a01b03919091166000908152600260205260409020805460ff1916911515919091179055565b60008181526003602052604090206005810154333110156107985760405162461bcd60e51b8152602060048201526014602482015273496e73756666696369656e742062616c616e636560601b6044820152606401610286565b600681015460ff16156107e25760405162461bcd60e51b8152602060048201526012602482015271125d195b481a185cc81899595b881cdbdb1960721b6044820152606401610286565b6006810154610100900460ff16156108355760405162461bcd60e51b8152602060048201526016602482015275125d195b481a185cc81899595b8818d85b98d95b195960521b6044820152606401610286565b60038101546001600160a01b031633141561088b5760405162461bcd60e51b8152602060048201526016602482015275125d195b481a185cc81899595b8818d85b98d95b195960521b6044820152606401610286565b6004810180546001600160a01b0319163317905560068101805460ff19166001179055426008820155600381015460058201546040516001600160a01b03929092169181156108fc0291906000818181858888f193505050501580156108f5573d6000803e3d6000fd5b50600181015460028201546040516323b872dd60e01b815230600482015233602482015260448101919091526001600160a01b03909116906323b872dd90606401600060405180830381600087803b15801561095057600080fd5b505af1158015610964573d6000803e3d6000fd5b5050505060018101546002820154600583015460038401546004850154604080516001600160a01b0396871681526020810195909552840192909252831660608301529190911660808201527f42a89ade7a7ed8c0bec679a55fadff290c178d33bdef3b702a23e96649db94229060a0016103e0565b6000546001600160a01b03163314610a045760405162461bcd60e51b815260040161028690610b8b565b6001600160a01b038116610a695760405162461bcd60e51b815260206004820152602660248201527f4f776e61626c653a206e6577206f776e657220697320746865207a65726f206160448201526564647265737360d01b6064820152608401610286565b610a7281610a75565b50565b600080546001600160a01b038381166001600160a01b0319831681178455604051919092169283917f8be0079c531659141344cd1fd0a4f28419497f9722a3daafe3b4186f6b6457e09190a35050565b80356001600160a01b0381168114610adc57600080fd5b919050565b600060208284031215610af357600080fd5b610afc82610ac5565b9392505050565b60008060408385031215610b1657600080fd5b610b1f83610ac5565b915060208301358015158114610b3457600080fd5b809150509250929050565b600080600060608486031215610b5457600080fd5b610b5d84610ac5565b95602085013595506040909401359392505050565b600060208284031215610b8457600080fd5b5035919050565b6020808252818101527f4f776e61626c653a2063616c6c6572206973206e6f7420746865206f776e657260408201526060019056fea2646970667358221220ca9e94770ebf9d43c53899e301c6998e87ddd13593b6d4e7706667ac7a73be1d64736f6c63430008060033",
  "linkReferences": {},
  "deployedLinkReferences": {}
}