{
  "_format": "hh-sol-artifact-1",
  "contractName": "Marketplace",
  "sourceName": "contracts/Marketplace.sol",
  "abi": [
    {
      "inputs": [
        {
          "internalType": "address",
          "name": "_allowedNFT",
          "type": "address"
        }
      ],
      "stateMutability": "nonpayable",
      "type": "constructor"
    },
    {
      "anonymous": false,
      "inputs": [
        {
          "indexed": false,
          "internalType": "address",
          "name": "_nftAddress",
          "type": "address"
        },
        {
          "indexed": false,
          "internalType": "uint256",
          "name": "_tokenId",
          "type": "uint256"
        },
        {
          "indexed": false,
          "internalType": "uint256",
          "name": "_tokenPrice",
          "type": "uint256"
        },
        {
          "indexed": false,
          "internalType": "address",
          "name": "_seller",
          "type": "address"
        },
        {
          "indexed": false,
          "internalType": "address",
          "name": "_buyer",
          "type": "address"
        }
      ],
      "name": "BuyItem",
      "type": "event"
    },
    {
      "anonymous": false,
      "inputs": [
        {
          "indexed": false,
          "internalType": "address",
          "name": "_seller",
          "type": "address"
        },
        {
          "indexed": false,
          "internalType": "uint256",
          "name": "_itemId",
          "type": "uint256"
        }
      ],
      "name": "CancelSell",
      "type": "event"
    },
    {
      "anonymous": false,
      "inputs": [
        {
          "indexed": false,
          "internalType": "address",
          "name": "_nftAddress",
          "type": "address"
        },
        {
          "indexed": false,
          "internalType": "uint256",
          "name": "_tokenId",
          "type": "uint256"
        },
        {
          "indexed": false,
          "internalType": "uint256",
          "name": "_tokenPrice",
          "type": "uint256"
        },
        {
          "indexed": false,
          "internalType": "address",
          "name": "_seller",
          "type": "address"
        }
      ],
      "name": "CreateItemSale",
      "type": "event"
    },
    {
      "anonymous": false,
      "inputs": [
        {
          "indexed": true,
          "internalType": "address",
          "name": "previousOwner",
          "type": "address"
        },
        {
          "indexed": true,
          "internalType": "address",
          "name": "newOwner",
          "type": "address"
        }
      ],
      "name": "OwnershipTransferred",
      "type": "event"
    },
    {
      "inputs": [
        {
          "internalType": "uint256",
          "name": "_itemId",
          "type": "uint256"
        }
      ],
      "name": "buyItem",
      "outputs": [],
      "stateMutability": "payable",
      "type": "function"
    },
    {
      "inputs": [
        {
          "internalType": "uint256",
          "name": "_itemId",
          "type": "uint256"
        }
      ],
      "name": "cancelSell",
      "outputs": [],
      "stateMutability": "nonpayable",
      "type": "function"
    },
    {
      "inputs": [
        {
          "internalType": "address",
          "name": "_nftAddress",
          "type": "address"
        },
        {
          "internalType": "uint256",
          "name": "_tokenId",
          "type": "uint256"
        },
        {
          "internalType": "uint256",
          "name": "_price",
          "type": "uint256"
        }
      ],
      "name": "createMarketItem",
      "outputs": [],
      "stateMutability": "nonpayable",
      "type": "function"
    },
    {
      "inputs": [
        {
          "internalType": "uint256",
          "name": "itemId",
          "type": "uint256"
        }
      ],
      "name": "getMarketItem",
      "outputs": [
        {
          "components": [
            {
              "internalType": "uint256",
              "name": "itemId",
              "type": "uint256"
            },
            {
              "internalType": "address",
              "name": "nftAddress",
              "type": "address"
            },
            {
              "internalType": "uint256",
              "name": "tokenId",
              "type": "uint256"
            },
            {
              "internalType": "address",
              "name": "seller",
              "type": "address"
            },
            {
              "internalType": "address",
              "name": "buyer",
              "type": "address"
            },
            {
              "internalType": "uint256",
              "name": "price",
              "type": "uint256"
            },
            {
              "internalType": "bool",
              "name": "sold",
              "type": "bool"
            },
            {
              "internalType": "bool",
              "name": "isCanceled",
              "type": "bool"
            },
            {
              "internalType": "uint256",
              "name": "timeCreated",
              "type": "uint256"
            },
            {
              "internalType": "uint256",
              "name": "timeSold",
              "type": "uint256"
            }
          ],
          "internalType": "struct Marketplace.MarketItem",
          "name": "",
          "type": "tuple"
        }
      ],
      "stateMutability": "view",
      "type": "function"
    },
    {
      "inputs": [],
      "name": "getMarketItems",
      "outputs": [
        {
          "components": [
            {
              "internalType": "uint256",
              "name": "itemId",
              "type": "uint256"
            },
            {
              "internalType": "address",
              "name": "nftAddress",
              "type": "address"
            },
            {
              "internalType": "uint256",
              "name": "tokenId",
              "type": "uint256"
            },
            {
              "internalType": "address",
              "name": "seller",
              "type": "address"
            },
            {
              "internalType": "address",
              "name": "buyer",
              "type": "address"
            },
            {
              "internalType": "uint256",
              "name": "price",
              "type": "uint256"
            },
            {
              "internalType": "bool",
              "name": "sold",
              "type": "bool"
            },
            {
              "internalType": "bool",
              "name": "isCanceled",
              "type": "bool"
            },
            {
              "internalType": "uint256",
              "name": "timeCreated",
              "type": "uint256"
            },
            {
              "internalType": "uint256",
              "name": "timeSold",
              "type": "uint256"
            }
          ],
          "internalType": "struct Marketplace.MarketItem[]",
          "name": "",
          "type": "tuple[]"
        }
      ],
      "stateMutability": "view",
      "type": "function"
    },
    {
      "inputs": [
        {
          "internalType": "uint256",
          "name": "",
          "type": "uint256"
        }
      ],
      "name": "marketItem",
      "outputs": [
        {
          "internalType": "uint256",
          "name": "itemId",
          "type": "uint256"
        },
        {
          "internalType": "address",
          "name": "nftAddress",
          "type": "address"
        },
        {
          "internalType": "uint256",
          "name": "tokenId",
          "type": "uint256"
        },
        {
          "internalType": "address",
          "name": "seller",
          "type": "address"
        },
        {
          "internalType": "address",
          "name": "buyer",
          "type": "address"
        },
        {
          "internalType": "uint256",
          "name": "price",
          "type": "uint256"
        },
        {
          "internalType": "bool",
          "name": "sold",
          "type": "bool"
        },
        {
          "internalType": "bool",
          "name": "isCanceled",
          "type": "bool"
        },
        {
          "internalType": "uint256",
          "name": "timeCreated",
          "type": "uint256"
        },
        {
          "internalType": "uint256",
          "name": "timeSold",
          "type": "uint256"
        }
      ],
      "stateMutability": "view",
      "type": "function"
    },
    {
      "inputs": [],
      "name": "owner",
      "outputs": [
        {
          "internalType": "address",
          "name": "",
          "type": "address"
        }
      ],
      "stateMutability": "view",
      "type": "function"
    },
    {
      "inputs": [],
      "name": "renounceOwnership",
      "outputs": [],
      "stateMutability": "nonpayable",
      "type": "function"
    },
    {
      "inputs": [
        {
          "internalType": "address",
          "name": "_nftAddress",
          "type": "address"
        },
        {
          "internalType": "bool",
          "name": "_license",
          "type": "bool"
        }
      ],
      "name": "setAllowedNFT",
      "outputs": [],
      "stateMutability": "nonpayable",
      "type": "function"
    },
    {
      "inputs": [
        {
          "internalType": "address",
          "name": "newOwner",
          "type": "address"
        }
      ],
      "name": "transferOwnership",
      "outputs": [],
      "stateMutability": "nonpayable",
      "type": "function"
    }
  ],
  "bytecode": "0x608060405234801561001057600080fd5b506040516112be3803806112be83398101604081905261002f916100af565b6100383361005f565b6001600160a01b03166000908152600360205260409020805460ff191660011790556100df565b600080546001600160a01b038381166001600160a01b0319831681178455604051919092169283917f8be0079c531659141344cd1fd0a4f28419497f9722a3daafe3b4186f6b6457e09190a35050565b6000602082840312156100c157600080fd5b81516001600160a01b03811681146100d857600080fd5b9392505050565b6111d0806100ee6000396000f3fe6080604052600436106100915760003560e01c80638da5cb5b116100595780638da5cb5b146101f0578063aea0825514610218578063c7be7a4914610238578063e7fb74c714610265578063f2fde38b1461027857600080fd5b806307c9cd451461009657806322d4efd8146100b857806329aa3a421461019957806358eb2df5146101bb578063715018a6146101db575b600080fd5b3480156100a257600080fd5b506100b66100b1366004610f9f565b610298565b005b3480156100c457600080fd5b5061013a6100d3366004610f9f565b600460208190526000918252604090912080546001820154600283015460038401549484015460058501546006860154600787015460089097015495976001600160a01b039586169794969086169590931693919260ff808316936101009093041691908a565b604080519a8b526001600160a01b03998a1660208c01528a0197909752948716606089015295909216608087015260a0860152151560c085015291151560e0840152610100830191909152610120820152610140015b60405180910390f35b3480156101a557600080fd5b506101ae610452565b6040516101909190611060565b3480156101c757600080fd5b506100b66101d6366004610f6a565b6105e0565b3480156101e757600080fd5b506100b661096a565b3480156101fc57600080fd5b506000546040516001600160a01b039091168152602001610190565b34801561022457600080fd5b506100b6610233366004610f2c565b6109a0565b34801561024457600080fd5b50610258610253366004610f9f565b6109f5565b60405161019091906110e4565b6100b6610273366004610f9f565b610a96565b34801561028457600080fd5b506100b6610293366004610eeb565b610d8e565b6000818152600460205260409020600681015460ff16156102f55760405162461bcd60e51b8152602060048201526012602482015271125d195b481a185cc81899595b881cdbdb1960721b60448201526064015b60405180910390fd5b6006810154610100900460ff16156103465760405162461bcd60e51b8152602060048201526014602482015273125d195b481a185cc81899595b8818d85b98d95b60621b60448201526064016102ec565b60038101546001600160a01b0316331461038d5760405162461bcd60e51b81526020600482015260086024820152672337b93134b232b760c11b60448201526064016102ec565b60068101805461ff001916610100179055600181015460028201546040516323b872dd60e01b815230600482015233602482015260448101919091526001600160a01b03909116906323b872dd90606401600060405180830381600087803b1580156103f857600080fd5b505af115801561040c573d6000803e3d6000fd5b505082546040805133815260208101929092527f1d9a1b6495eda6cce8aef549d9c7b628d901a68f6eb7d7629458b006ab79cb0693500190505b60405180910390a15050565b6060600061045f60015490565b9050600061046c60025490565b6001546104799190611111565b90506000808267ffffffffffffffff8111156104975761049761116f565b6040519080825280602002602001820160405280156104d057816020015b6104bd610e79565b8152602001906001900390816104b55790505b50905060005b848110156105d757600081815260046020819052604090912001546001600160a01b03166105c5576000818152600460208181526040928390208351610140810185528154815260018201546001600160a01b039081169382019390935260028201549481019490945260038101548216606085015291820154166080830152600581015460a0830152600681015460ff808216151560c08501526101009182900416151560e0840152600782015490830152600881015461012083015283519091908490869081106105ab576105ab611159565b60209081029190910101526105c16001856110f9565b9350505b806105cf81611128565b9150506104d6565b50949350505050565b6001600160a01b03831660009081526003602052604090205460ff1661063b5760405162461bcd60e51b815260206004820152601060248201526f13db9b1e48185b1b1bddd9590813919560821b60448201526064016102ec565b6040516331a9108f60e11b81526004810183905233906001600160a01b03851690636352211e9060240160206040518083038186803b15801561067d57600080fd5b505afa158015610691573d6000803e3d6000fd5b505050506040513d601f19601f820116820180604052508101906106b59190610f0f565b6001600160a01b0316146106fe5760405162461bcd60e51b815260206004820152601060248201526f27b7363c903a37b5b2b71037bbb732b960811b60448201526064016102ec565b600061070960015490565b9050604051806101400160405280828152602001856001600160a01b03168152602001848152602001336001600160a01b0316815260200160006001600160a01b031681526020018381526020016000151581526020016000151581526020014281526020016000815250600460008381526020019081526020016000206000820151816000015560208201518160010160006101000a8154816001600160a01b0302191690836001600160a01b031602179055506040820151816002015560608201518160030160006101000a8154816001600160a01b0302191690836001600160a01b0316021790555060808201518160040160006101000a8154816001600160a01b0302191690836001600160a01b0316021790555060a0820151816005015560c08201518160060160006101000a81548160ff02191690831515021790555060e08201518160060160016101000a81548160ff02191690831515021790555061010082015181600701556101208201518160080155905050836001600160a01b03166323b872dd3330866040518463ffffffff1660e01b81526004016108d4939291906001600160a01b039384168152919092166020820152604081019190915260600190565b600060405180830381600087803b1580156108ee57600080fd5b505af1158015610902573d6000803e3d6000fd5b50505050610914600180546001019055565b604080516001600160a01b0386168152602081018590529081018390523360608201527f77909a86d80fee4d1f9885d102741b4b8ce2d434615a6296bc8c0a7f30743a3a9060800160405180910390a150505050565b6000546001600160a01b031633146109945760405162461bcd60e51b81526004016102ec906110af565b61099e6000610e29565b565b6000546001600160a01b031633146109ca5760405162461bcd60e51b81526004016102ec906110af565b6001600160a01b03919091166000908152600360205260409020805460ff1916911515919091179055565b6109fd610e79565b506000908152600460208181526040928390208351610140810185528154815260018201546001600160a01b039081169382019390935260028201549481019490945260038101548216606085015291820154166080830152600581015460a0830152600681015460ff808216151560c08501526101009182900416151560e08401526007820154908301526008015461012082015290565b6000818152600460205260409020600581015433311015610af05760405162461bcd60e51b8152602060048201526014602482015273496e73756666696369656e742062616c616e636560601b60448201526064016102ec565b8060050154341015610b385760405162461bcd60e51b81526020600482015260116024820152704e6f7420656e6f75676820746f2070617960781b60448201526064016102ec565b600681015460ff1615610b825760405162461bcd60e51b8152602060048201526012602482015271125d195b481a185cc81899595b881cdbdb1960721b60448201526064016102ec565b6006810154610100900460ff1615610bd55760405162461bcd60e51b8152602060048201526016602482015275125d195b481a185cc81899595b8818d85b98d95b195960521b60448201526064016102ec565b60038101546001600160a01b0316331415610c325760405162461bcd60e51b815260206004820152601760248201527f43616e2774206275792066726f6d20796f757273656c6600000000000000000060448201526064016102ec565b600381015460058201546040516001600160a01b039092169181156108fc0291906000818181858888f19350505050158015610c72573d6000803e3d6000fd5b50600181015460028201546040516323b872dd60e01b815230600482015233602482015260448101919091526001600160a01b03909116906323b872dd90606401600060405180830381600087803b158015610ccd57600080fd5b505af1158015610ce1573d6000803e3d6000fd5b5050506004820180546001600160a01b031916331790555060068101805460ff19166001179055426008820155610d1c600280546001019055565b60018101546002820154600583015460038401546004850154604080516001600160a01b0396871681526020810195909552840192909252831660608301529190911660808201527f42a89ade7a7ed8c0bec679a55fadff290c178d33bdef3b702a23e96649db94229060a001610446565b6000546001600160a01b03163314610db85760405162461bcd60e51b81526004016102ec906110af565b6001600160a01b038116610e1d5760405162461bcd60e51b815260206004820152602660248201527f4f776e61626c653a206e6577206f776e657220697320746865207a65726f206160448201526564647265737360d01b60648201526084016102ec565b610e2681610e29565b50565b600080546001600160a01b038381166001600160a01b0319831681178455604051919092169283917f8be0079c531659141344cd1fd0a4f28419497f9722a3daafe3b4186f6b6457e09190a35050565b6040518061014001604052806000815260200160006001600160a01b031681526020016000815260200160006001600160a01b0316815260200160006001600160a01b031681526020016000815260200160001515815260200160001515815260200160008152602001600081525090565b600060208284031215610efd57600080fd5b8135610f0881611185565b9392505050565b600060208284031215610f2157600080fd5b8151610f0881611185565b60008060408385031215610f3f57600080fd5b8235610f4a81611185565b915060208301358015158114610f5f57600080fd5b809150509250929050565b600080600060608486031215610f7f57600080fd5b8335610f8a81611185565b95602085013595506040909401359392505050565b600060208284031215610fb157600080fd5b5035919050565b805182526020810151610fd660208401826001600160a01b03169052565b50604081015160408301526060810151610ffb60608401826001600160a01b03169052565b50608081015161101660808401826001600160a01b03169052565b5060a081015160a083015260c081015161103460c084018215159052565b5060e081015161104860e084018215159052565b50610100818101519083015261012090810151910152565b6020808252825182820181905260009190848201906040850190845b818110156110a35761108f838551610fb8565b92840192610140929092019160010161107c565b50909695505050505050565b6020808252818101527f4f776e61626c653a2063616c6c6572206973206e6f7420746865206f776e6572604082015260600190565b61014081016110f38284610fb8565b92915050565b6000821982111561110c5761110c611143565b500190565b60008282101561112357611123611143565b500390565b600060001982141561113c5761113c611143565b5060010190565b634e487b7160e01b600052601160045260246000fd5b634e487b7160e01b600052603260045260246000fd5b634e487b7160e01b600052604160045260246000fd5b6001600160a01b0381168114610e2657600080fdfea2646970667358221220ab8491b16a5f6d171f87d930f63aa7ee6260d4312957b99f811cb4691dd9c62d64736f6c63430008060033",
  "linkReferences": {},
  "deployedLinkReferences": {}
}